{
  "_format": "hh-sol-artifact-1",
  "contractName": "NFTMarketplace",
  "sourceName": "contracts/NFTMarketplace.sol",
  "abi": [
    {
      "inputs": [],
      "stateMutability": "nonpayable",
      "type": "constructor"
    },
    {
      "anonymous": false,
      "inputs": [
        {
          "indexed": true,
          "internalType": "address",
          "name": "owner",
          "type": "address"
        },
        {
          "indexed": true,
          "internalType": "address",
          "name": "approved",
          "type": "address"
        },
        {
          "indexed": true,
          "internalType": "uint256",
          "name": "tokenId",
          "type": "uint256"
        }
      ],
      "name": "Approval",
      "type": "event"
    },
    {
      "anonymous": false,
      "inputs": [
        {
          "indexed": true,
          "internalType": "address",
          "name": "owner",
          "type": "address"
        },
        {
          "indexed": true,
          "internalType": "address",
          "name": "operator",
          "type": "address"
        },
        {
          "indexed": false,
          "internalType": "bool",
          "name": "approved",
          "type": "bool"
        }
      ],
      "name": "ApprovalForAll",
      "type": "event"
    },
    {
      "anonymous": false,
      "inputs": [
        {
          "indexed": false,
          "internalType": "uint256",
          "name": "_fromTokenId",
          "type": "uint256"
        },
        {
          "indexed": false,
          "internalType": "uint256",
          "name": "_toTokenId",
          "type": "uint256"
        }
      ],
      "name": "BatchMetadataUpdate",
      "type": "event"
    },
    {
      "anonymous": false,
      "inputs": [
        {
          "indexed": false,
          "internalType": "uint256",
          "name": "_tokenId",
          "type": "uint256"
        }
      ],
      "name": "MetadataUpdate",
      "type": "event"
    },
    {
      "anonymous": false,
      "inputs": [
        {
          "indexed": true,
          "internalType": "address",
          "name": "from",
          "type": "address"
        },
        {
          "indexed": true,
          "internalType": "address",
          "name": "to",
          "type": "address"
        },
        {
          "indexed": true,
          "internalType": "uint256",
          "name": "tokenId",
          "type": "uint256"
        }
      ],
      "name": "Transfer",
      "type": "event"
    },
    {
      "anonymous": false,
      "inputs": [
        {
          "indexed": true,
          "internalType": "uint256",
          "name": "tokenId",
          "type": "uint256"
        },
        {
          "indexed": false,
          "internalType": "address",
          "name": "seller",
          "type": "address"
        },
        {
          "indexed": false,
          "internalType": "address",
          "name": "owner",
          "type": "address"
        },
        {
          "indexed": false,
          "internalType": "uint256",
          "name": "price",
          "type": "uint256"
        },
        {
          "indexed": false,
          "internalType": "bool",
          "name": "sold",
          "type": "bool"
        }
      ],
      "name": "idMarketItemCreated",
      "type": "event"
    },
    {
      "inputs": [
        {
          "internalType": "address",
          "name": "to",
          "type": "address"
        },
        {
          "internalType": "uint256",
          "name": "tokenId",
          "type": "uint256"
        }
      ],
      "name": "approve",
      "outputs": [],
      "stateMutability": "nonpayable",
      "type": "function"
    },
    {
      "inputs": [
        {
          "internalType": "address",
          "name": "owner",
          "type": "address"
        }
      ],
      "name": "balanceOf",
      "outputs": [
        {
          "internalType": "uint256",
          "name": "",
          "type": "uint256"
        }
      ],
      "stateMutability": "view",
      "type": "function"
    },
    {
      "inputs": [
        {
          "internalType": "uint256",
          "name": "tokenId",
          "type": "uint256"
        }
      ],
      "name": "createMarketSale",
      "outputs": [],
      "stateMutability": "payable",
      "type": "function"
    },
    {
      "inputs": [
        {
          "internalType": "string",
          "name": "tokenURI",
          "type": "string"
        },
        {
          "internalType": "uint256",
          "name": "price",
          "type": "uint256"
        }
      ],
      "name": "createToken",
      "outputs": [
        {
          "internalType": "uint256",
          "name": "",
          "type": "uint256"
        }
      ],
      "stateMutability": "payable",
      "type": "function"
    },
    {
      "inputs": [],
      "name": "fetchItemsListed",
      "outputs": [
        {
          "components": [
            {
              "internalType": "uint256",
              "name": "tokenId",
              "type": "uint256"
            },
            {
              "internalType": "address payable",
              "name": "seller",
              "type": "address"
            },
            {
              "internalType": "address payable",
              "name": "owner",
              "type": "address"
            },
            {
              "internalType": "uint256",
              "name": "price",
              "type": "uint256"
            },
            {
              "internalType": "bool",
              "name": "sold",
              "type": "bool"
            }
          ],
          "internalType": "struct NFTMarketplace.MarketItem[]",
          "name": "",
          "type": "tuple[]"
        }
      ],
      "stateMutability": "view",
      "type": "function"
    },
    {
      "inputs": [],
      "name": "fetchMarketItem",
      "outputs": [
        {
          "components": [
            {
              "internalType": "uint256",
              "name": "tokenId",
              "type": "uint256"
            },
            {
              "internalType": "address payable",
              "name": "seller",
              "type": "address"
            },
            {
              "internalType": "address payable",
              "name": "owner",
              "type": "address"
            },
            {
              "internalType": "uint256",
              "name": "price",
              "type": "uint256"
            },
            {
              "internalType": "bool",
              "name": "sold",
              "type": "bool"
            }
          ],
          "internalType": "struct NFTMarketplace.MarketItem[]",
          "name": "",
          "type": "tuple[]"
        }
      ],
      "stateMutability": "view",
      "type": "function"
    },
    {
      "inputs": [],
      "name": "fetchMyNFT",
      "outputs": [
        {
          "components": [
            {
              "internalType": "uint256",
              "name": "tokenId",
              "type": "uint256"
            },
            {
              "internalType": "address payable",
              "name": "seller",
              "type": "address"
            },
            {
              "internalType": "address payable",
              "name": "owner",
              "type": "address"
            },
            {
              "internalType": "uint256",
              "name": "price",
              "type": "uint256"
            },
            {
              "internalType": "bool",
              "name": "sold",
              "type": "bool"
            }
          ],
          "internalType": "struct NFTMarketplace.MarketItem[]",
          "name": "",
          "type": "tuple[]"
        }
      ],
      "stateMutability": "view",
      "type": "function"
    },
    {
      "inputs": [
        {
          "internalType": "uint256",
          "name": "tokenId",
          "type": "uint256"
        }
      ],
      "name": "getApproved",
      "outputs": [
        {
          "internalType": "address",
          "name": "",
          "type": "address"
        }
      ],
      "stateMutability": "view",
      "type": "function"
    },
    {
      "inputs": [],
      "name": "getListingPrice",
      "outputs": [
        {
          "internalType": "uint256",
          "name": "",
          "type": "uint256"
        }
      ],
      "stateMutability": "view",
      "type": "function"
    },
    {
      "inputs": [
        {
          "internalType": "address",
          "name": "owner",
          "type": "address"
        },
        {
          "internalType": "address",
          "name": "operator",
          "type": "address"
        }
      ],
      "name": "isApprovedForAll",
      "outputs": [
        {
          "internalType": "bool",
          "name": "",
          "type": "bool"
        }
      ],
      "stateMutability": "view",
      "type": "function"
    },
    {
      "inputs": [],
      "name": "name",
      "outputs": [
        {
          "internalType": "string",
          "name": "",
          "type": "string"
        }
      ],
      "stateMutability": "view",
      "type": "function"
    },
    {
      "inputs": [
        {
          "internalType": "uint256",
          "name": "tokenId",
          "type": "uint256"
        }
      ],
      "name": "ownerOf",
      "outputs": [
        {
          "internalType": "address",
          "name": "",
          "type": "address"
        }
      ],
      "stateMutability": "view",
      "type": "function"
    },
    {
      "inputs": [
        {
          "internalType": "uint256",
          "name": "tokenId",
          "type": "uint256"
        },
        {
          "internalType": "uint256",
          "name": "price",
          "type": "uint256"
        }
      ],
      "name": "reSellToken",
      "outputs": [],
      "stateMutability": "payable",
      "type": "function"
    },
    {
      "inputs": [
        {
          "internalType": "address",
          "name": "from",
          "type": "address"
        },
        {
          "internalType": "address",
          "name": "to",
          "type": "address"
        },
        {
          "internalType": "uint256",
          "name": "tokenId",
          "type": "uint256"
        }
      ],
      "name": "safeTransferFrom",
      "outputs": [],
      "stateMutability": "nonpayable",
      "type": "function"
    },
    {
      "inputs": [
        {
          "internalType": "address",
          "name": "from",
          "type": "address"
        },
        {
          "internalType": "address",
          "name": "to",
          "type": "address"
        },
        {
          "internalType": "uint256",
          "name": "tokenId",
          "type": "uint256"
        },
        {
          "internalType": "bytes",
          "name": "data",
          "type": "bytes"
        }
      ],
      "name": "safeTransferFrom",
      "outputs": [],
      "stateMutability": "nonpayable",
      "type": "function"
    },
    {
      "inputs": [
        {
          "internalType": "address",
          "name": "operator",
          "type": "address"
        },
        {
          "internalType": "bool",
          "name": "approved",
          "type": "bool"
        }
      ],
      "name": "setApprovalForAll",
      "outputs": [],
      "stateMutability": "nonpayable",
      "type": "function"
    },
    {
      "inputs": [
        {
          "internalType": "bytes4",
          "name": "interfaceId",
          "type": "bytes4"
        }
      ],
      "name": "supportsInterface",
      "outputs": [
        {
          "internalType": "bool",
          "name": "",
          "type": "bool"
        }
      ],
      "stateMutability": "view",
      "type": "function"
    },
    {
      "inputs": [],
      "name": "symbol",
      "outputs": [
        {
          "internalType": "string",
          "name": "",
          "type": "string"
        }
      ],
      "stateMutability": "view",
      "type": "function"
    },
    {
      "inputs": [
        {
          "internalType": "uint256",
          "name": "tokenId",
          "type": "uint256"
        }
      ],
      "name": "tokenURI",
      "outputs": [
        {
          "internalType": "string",
          "name": "",
          "type": "string"
        }
      ],
      "stateMutability": "view",
      "type": "function"
    },
    {
      "inputs": [
        {
          "internalType": "address",
          "name": "from",
          "type": "address"
        },
        {
          "internalType": "address",
          "name": "to",
          "type": "address"
        },
        {
          "internalType": "uint256",
          "name": "tokenId",
          "type": "uint256"
        }
      ],
      "name": "transferFrom",
      "outputs": [],
      "stateMutability": "nonpayable",
      "type": "function"
    },
    {
      "inputs": [
        {
          "internalType": "uint256",
          "name": "_listingPrice",
          "type": "uint256"
        }
      ],
      "name": "updateListingPrice",
      "outputs": [],
      "stateMutability": "payable",
      "type": "function"
    }
  ],
  "bytecode": "0x60806040526605543df729c0006009553480156200001c57600080fd5b506040518060400160405280601381526020017f4e4654204d657461766172736520546f6b656e000000000000000000000000008152506040518060400160405280600581526020017f4d594e465400000000000000000000000000000000000000000000000000000081525081600090816200009a919062000355565b508060019081620000ac919062000355565b5050503373ffffffffffffffffffffffffffffffffffffffff16600a60009054906101000a905050506200043c565b600081519050919050565b7f4e487b7100000000000000000000000000000000000000000000000000000000600052604160045260246000fd5b7f4e487b7100000000000000000000000000000000000000000000000000000000600052602260045260246000fd5b600060028204905060018216806200015d57607f821691505b60208210810362000173576200017262000115565b5b50919050565b60008190508160005260206000209050919050565b60006020601f8301049050919050565b600082821b905092915050565b600060088302620001dd7fffffffffffffffffffffffffffffffffffffffffffffffffffffffffffffffff826200019e565b620001e986836200019e565b95508019841693508086168417925050509392505050565b6000819050919050565b6000819050919050565b600062000236620002306200022a8462000201565b6200020b565b62000201565b9050919050565b6000819050919050565b620002528362000215565b6200026a62000261826200023d565b848454620001ab565b825550505050565b600090565b6200028162000272565b6200028e81848462000247565b505050565b5b81811015620002b657620002aa60008262000277565b60018101905062000294565b5050565b601f8211156200030557620002cf8162000179565b620002da846200018e565b81016020851015620002ea578190505b62000302620002f9856200018e565b83018262000293565b50505b505050565b600082821c905092915050565b60006200032a600019846008026200030a565b1980831691505092915050565b600062000345838362000317565b9150826002028217905092915050565b6200036082620000db565b67ffffffffffffffff8111156200037c576200037b620000e6565b5b62000388825462000144565b62000395828285620002ba565b600060209050601f831160018114620003cd5760008415620003b8578287015190505b620003c4858262000337565b86555062000434565b601f198416620003dd8662000179565b60005b828110156200040757848901518255600182019150602085019450602081019050620003e0565b8683101562000427578489015162000423601f89168262000317565b8355505b6001600288020188555050505b505050505050565b6142cb806200044c6000396000f3fe60806040526004361061012a5760003560e01c806372b3b620116100ab578063ae677aa31161006f578063ae677aa3146103ea578063b88d4fde14610406578063be9af5361461042f578063c18763f71461044b578063c87b56dd14610476578063e985e9c5146104b35761012a565b806372b3b6201461031f57806385535b251461034f5780638fafd0211461036b57806395d89b4114610396578063a22cb465146103c15761012a565b806323b872dd116100f257806323b872dd1461022857806342842e0e1461025157806345f8fa801461027a5780636352211e146102a557806370a08231146102e25761012a565b806301ffc9a71461012f57806306fdde031461016c578063081812fc14610197578063095ea7b3146101d457806312e85585146101fd575b600080fd5b34801561013b57600080fd5b5061015660048036038101906101519190612b8f565b6104f0565b6040516101639190612bd7565b60405180910390f35b34801561017857600080fd5b50610181610551565b60405161018e9190612c82565b60405180910390f35b3480156101a357600080fd5b506101be60048036038101906101b99190612cda565b6105e3565b6040516101cb9190612d48565b60405180910390f35b3480156101e057600080fd5b506101fb60048036038101906101f69190612d8f565b610629565b005b34801561020957600080fd5b50610212610740565b60405161021f9190612dde565b60405180910390f35b34801561023457600080fd5b5061024f600480360381019061024a9190612df9565b61074a565b005b34801561025d57600080fd5b5061027860048036038101906102739190612df9565b6107aa565b005b34801561028657600080fd5b5061028f6107ca565b60405161029c9190612fa2565b60405180910390f35b3480156102b157600080fd5b506102cc60048036038101906102c79190612cda565b610ab6565b6040516102d99190612d48565b60405180910390f35b3480156102ee57600080fd5b5061030960048036038101906103049190612fc4565b610b3c565b6040516103169190612dde565b60405180910390f35b61033960048036038101906103349190613126565b610bf3565b6040516103469190612dde565b60405180910390f35b61036960048036038101906103649190613182565b610c35565b005b34801561037757600080fd5b50610380610e2a565b60405161038d9190612fa2565b60405180910390f35b3480156103a257600080fd5b506103ab611092565b6040516103b89190612c82565b60405180910390f35b3480156103cd57600080fd5b506103e860048036038101906103e391906131ee565b611124565b005b61040460048036038101906103ff9190612cda565b61113a565b005b34801561041257600080fd5b5061042d600480360381019061042891906132cf565b6111d4565b005b61044960048036038101906104449190612cda565b611236565b005b34801561045757600080fd5b5061046061146e565b60405161046d9190612fa2565b60405180910390f35b34801561048257600080fd5b5061049d60048036038101906104989190612cda565b61175a565b6040516104aa9190612c82565b60405180910390f35b3480156104bf57600080fd5b506104da60048036038101906104d59190613352565b61186c565b6040516104e79190612bd7565b60405180910390f35b6000634906490660e01b7bffffffffffffffffffffffffffffffffffffffffffffffffffffffff1916827bffffffffffffffffffffffffffffffffffffffffffffffffffffffff1916148061054a575061054982611900565b5b9050919050565b606060008054610560906133c1565b80601f016020809104026020016040519081016040528092919081815260200182805461058c906133c1565b80156105d95780601f106105ae576101008083540402835291602001916105d9565b820191906000526020600020905b8154815290600101906020018083116105bc57829003601f168201915b5050505050905090565b60006105ee826119e2565b6004600083815260200190815260200160002060009054906101000a900473ffffffffffffffffffffffffffffffffffffffff169050919050565b600061063482610ab6565b90508073ffffffffffffffffffffffffffffffffffffffff168373ffffffffffffffffffffffffffffffffffffffff16036106a4576040517f08c379a000000000000000000000000000000000000000000000000000000000815260040161069b90613464565b60405180910390fd5b8073ffffffffffffffffffffffffffffffffffffffff166106c3611a2d565b73ffffffffffffffffffffffffffffffffffffffff1614806106f257506106f1816106ec611a2d565b61186c565b5b610731576040517f08c379a0000000000000000000000000000000000000000000000000000000008152600401610728906134f6565b60405180910390fd5b61073b8383611a35565b505050565b6000600954905090565b61075b610755611a2d565b82611aee565b61079a576040517f08c379a000000000000000000000000000000000000000000000000000000000815260040161079190613588565b60405180910390fd5b6107a5838383611b83565b505050565b6107c5838383604051806020016040528060008152506111d4565b505050565b606060006107d86007611e7c565b905060008060005b83811015610880573373ffffffffffffffffffffffffffffffffffffffff16600b600060018461081091906135d7565b815260200190815260200160002060010160009054906101000a900473ffffffffffffffffffffffffffffffffffffffff1673ffffffffffffffffffffffffffffffffffffffff160361086d5760008361086a91906135d7565b92505b80806108789061360b565b9150506107e0565b5060008267ffffffffffffffff81111561089d5761089c612ffb565b5b6040519080825280602002602001820160405280156108d657816020015b6108c3612ac6565b8152602001906001900390816108bb5790505b50905060005b84811015610aab573373ffffffffffffffffffffffffffffffffffffffff16600b600060018461090c91906135d7565b815260200190815260200160002060010160009054906101000a900473ffffffffffffffffffffffffffffffffffffffff1673ffffffffffffffffffffffffffffffffffffffff1603610a9857600060018261096891906135d7565b90506000600b60008381526020019081526020016000209050806040518060a0016040529081600082015481526020016001820160009054906101000a900473ffffffffffffffffffffffffffffffffffffffff1673ffffffffffffffffffffffffffffffffffffffff1673ffffffffffffffffffffffffffffffffffffffff1681526020016002820160009054906101000a900473ffffffffffffffffffffffffffffffffffffffff1673ffffffffffffffffffffffffffffffffffffffff1673ffffffffffffffffffffffffffffffffffffffff168152602001600382015481526020016004820160009054906101000a900460ff161515151581525050848681518110610a7b57610a7a613653565b5b6020026020010181905250600185610a9391906135d7565b945050505b8080610aa39061360b565b9150506108dc565b508094505050505090565b600080610ac283611e8a565b9050600073ffffffffffffffffffffffffffffffffffffffff168173ffffffffffffffffffffffffffffffffffffffff1603610b33576040517f08c379a0000000000000000000000000000000000000000000000000000000008152600401610b2a906136ce565b60405180910390fd5b80915050919050565b60008073ffffffffffffffffffffffffffffffffffffffff168273ffffffffffffffffffffffffffffffffffffffff1603610bac576040517f08c379a0000000000000000000000000000000000000000000000000000000008152600401610ba390613760565b60405180910390fd5b600360008373ffffffffffffffffffffffffffffffffffffffff1673ffffffffffffffffffffffffffffffffffffffff168152602001908152602001600020549050919050565b6000610bff6007611ec7565b6000610c0b6007611e7c565b9050610c173382611edd565b610c2181856120fa565b610c2b818461219e565b8091505092915050565b3373ffffffffffffffffffffffffffffffffffffffff16600b600084815260200190815260200160002060020160009054906101000a900473ffffffffffffffffffffffffffffffffffffffff1673ffffffffffffffffffffffffffffffffffffffff1614610cd9576040517f08c379a0000000000000000000000000000000000000000000000000000000008152600401610cd0906137f2565b60405180910390fd5b6009543414610d1d576040517f08c379a0000000000000000000000000000000000000000000000000000000008152600401610d1490613884565b60405180910390fd5b6000600b600084815260200190815260200160002060040160006101000a81548160ff02191690831515021790555080600b60008481526020019081526020016000206003018190555033600b600084815260200190815260200160002060010160006101000a81548173ffffffffffffffffffffffffffffffffffffffff021916908373ffffffffffffffffffffffffffffffffffffffff16021790555030600b600084815260200190815260200160002060020160006101000a81548173ffffffffffffffffffffffffffffffffffffffff021916908373ffffffffffffffffffffffffffffffffffffffff160217905550610e1b60086123a1565b610e26333084611b83565b5050565b60606000610e386007611e7c565b90506000610e466008611e7c565b610e506007611e7c565b610e5a91906138a4565b90506000808267ffffffffffffffff811115610e7957610e78612ffb565b5b604051908082528060200260200182016040528015610eb257816020015b610e9f612ac6565b815260200190600190039081610e975790505b50905060005b84811015611087573073ffffffffffffffffffffffffffffffffffffffff16600b6000600184610ee891906135d7565b815260200190815260200160002060020160009054906101000a900473ffffffffffffffffffffffffffffffffffffffff1673ffffffffffffffffffffffffffffffffffffffff1603611074576000600182610f4491906135d7565b90506000600b60008381526020019081526020016000209050806040518060a0016040529081600082015481526020016001820160009054906101000a900473ffffffffffffffffffffffffffffffffffffffff1673ffffffffffffffffffffffffffffffffffffffff1673ffffffffffffffffffffffffffffffffffffffff1681526020016002820160009054906101000a900473ffffffffffffffffffffffffffffffffffffffff1673ffffffffffffffffffffffffffffffffffffffff1673ffffffffffffffffffffffffffffffffffffffff168152602001600382015481526020016004820160009054906101000a900460ff16151515158152505084868151811061105757611056613653565b5b602002602001018190525060018561106f91906135d7565b945050505b808061107f9061360b565b915050610eb8565b508094505050505090565b6060600180546110a1906133c1565b80601f01602080910402602001604051908101604052809291908181526020018280546110cd906133c1565b801561111a5780601f106110ef5761010080835404028352916020019161111a565b820191906000526020600020905b8154815290600101906020018083116110fd57829003601f168201915b5050505050905090565b61113661112f611a2d565b83836123fd565b5050565b600a60009054906101000a900473ffffffffffffffffffffffffffffffffffffffff1673ffffffffffffffffffffffffffffffffffffffff163373ffffffffffffffffffffffffffffffffffffffff16146111ca576040517f08c379a00000000000000000000000000000000000000000000000000000000081526004016111c19061394a565b60405180910390fd5b8060098190555050565b6111e56111df611a2d565b83611aee565b611224576040517f08c379a000000000000000000000000000000000000000000000000000000000815260040161121b90613588565b60405180910390fd5b61123084848484612569565b50505050565b6000600b6000838152602001908152602001600020600301549050803414611293576040517f08c379a000000000000000000000000000000000000000000000000000000000815260040161128a906139dc565b60405180910390fd5b33600b600084815260200190815260200160002060020160006101000a81548173ffffffffffffffffffffffffffffffffffffffff021916908373ffffffffffffffffffffffffffffffffffffffff1602179055506001600b600084815260200190815260200160002060040160006101000a81548160ff0219169083151502179055506000600b600084815260200190815260200160002060020160006101000a81548173ffffffffffffffffffffffffffffffffffffffff021916908373ffffffffffffffffffffffffffffffffffffffff1602179055506113776008611ec7565b611382303384611b83565b600a60009054906101000a900473ffffffffffffffffffffffffffffffffffffffff1673ffffffffffffffffffffffffffffffffffffffff166108fc6009549081150290604051600060405180830381858888f193505050501580156113ec573d6000803e3d6000fd5b50600b600083815260200190815260200160002060010160009054906101000a900473ffffffffffffffffffffffffffffffffffffffff1673ffffffffffffffffffffffffffffffffffffffff166108fc349081150290604051600060405180830381858888f19350505050158015611469573d6000803e3d6000fd5b505050565b6060600061147c6007611e7c565b905060008060005b83811015611524573373ffffffffffffffffffffffffffffffffffffffff16600b60006001846114b491906135d7565b815260200190815260200160002060020160009054906101000a900473ffffffffffffffffffffffffffffffffffffffff1673ffffffffffffffffffffffffffffffffffffffff16036115115760018361150e91906135d7565b92505b808061151c9061360b565b915050611484565b5060008267ffffffffffffffff81111561154157611540612ffb565b5b60405190808252806020026020018201604052801561157a57816020015b611567612ac6565b81526020019060019003908161155f5790505b50905060005b8481101561174f573373ffffffffffffffffffffffffffffffffffffffff16600b60006001846115b091906135d7565b815260200190815260200160002060020160009054906101000a900473ffffffffffffffffffffffffffffffffffffffff1673ffffffffffffffffffffffffffffffffffffffff160361173c57600060018261160c91906135d7565b90506000600b60008381526020019081526020016000209050806040518060a0016040529081600082015481526020016001820160009054906101000a900473ffffffffffffffffffffffffffffffffffffffff1673ffffffffffffffffffffffffffffffffffffffff1673ffffffffffffffffffffffffffffffffffffffff1681526020016002820160009054906101000a900473ffffffffffffffffffffffffffffffffffffffff1673ffffffffffffffffffffffffffffffffffffffff1673ffffffffffffffffffffffffffffffffffffffff168152602001600382015481526020016004820160009054906101000a900460ff16151515158152505084868151811061171f5761171e613653565b5b602002602001018190525060018561173791906135d7565b945050505b80806117479061360b565b915050611580565b508094505050505090565b6060611765826119e2565b6000600660008481526020019081526020016000208054611785906133c1565b80601f01602080910402602001604051908101604052809291908181526020018280546117b1906133c1565b80156117fe5780601f106117d3576101008083540402835291602001916117fe565b820191906000526020600020905b8154815290600101906020018083116117e157829003601f168201915b50505050509050600061180f6125c5565b90506000815103611824578192505050611867565b600082511115611859578082604051602001611841929190613a38565b60405160208183030381529060405292505050611867565b611862846125dc565b925050505b919050565b6000600560008473ffffffffffffffffffffffffffffffffffffffff1673ffffffffffffffffffffffffffffffffffffffff16815260200190815260200160002060008373ffffffffffffffffffffffffffffffffffffffff1673ffffffffffffffffffffffffffffffffffffffff16815260200190815260200160002060009054906101000a900460ff16905092915050565b60007f80ac58cd000000000000000000000000000000000000000000000000000000007bffffffffffffffffffffffffffffffffffffffffffffffffffffffff1916827bffffffffffffffffffffffffffffffffffffffffffffffffffffffff191614806119cb57507f5b5e139f000000000000000000000000000000000000000000000000000000007bffffffffffffffffffffffffffffffffffffffffffffffffffffffff1916827bffffffffffffffffffffffffffffffffffffffffffffffffffffffff1916145b806119db57506119da82612644565b5b9050919050565b6119eb816126ae565b611a2a576040517f08c379a0000000000000000000000000000000000000000000000000000000008152600401611a21906136ce565b60405180910390fd5b50565b600033905090565b816004600083815260200190815260200160002060006101000a81548173ffffffffffffffffffffffffffffffffffffffff021916908373ffffffffffffffffffffffffffffffffffffffff160217905550808273ffffffffffffffffffffffffffffffffffffffff16611aa883610ab6565b73ffffffffffffffffffffffffffffffffffffffff167f8c5be1e5ebec7d5bd14f71427d1e84f3dd0314c0f7b2291e5b200ac8c7c3b92560405160405180910390a45050565b600080611afa83610ab6565b90508073ffffffffffffffffffffffffffffffffffffffff168473ffffffffffffffffffffffffffffffffffffffff161480611b3c5750611b3b818561186c565b5b80611b7a57508373ffffffffffffffffffffffffffffffffffffffff16611b62846105e3565b73ffffffffffffffffffffffffffffffffffffffff16145b91505092915050565b8273ffffffffffffffffffffffffffffffffffffffff16611ba382610ab6565b73ffffffffffffffffffffffffffffffffffffffff1614611bf9576040517f08c379a0000000000000000000000000000000000000000000000000000000008152600401611bf090613ace565b60405180910390fd5b600073ffffffffffffffffffffffffffffffffffffffff168273ffffffffffffffffffffffffffffffffffffffff1603611c68576040517f08c379a0000000000000000000000000000000000000000000000000000000008152600401611c5f90613b60565b60405180910390fd5b611c7583838360016126ef565b8273ffffffffffffffffffffffffffffffffffffffff16611c9582610ab6565b73ffffffffffffffffffffffffffffffffffffffff1614611ceb576040517f08c379a0000000000000000000000000000000000000000000000000000000008152600401611ce290613ace565b60405180910390fd5b6004600082815260200190815260200160002060006101000a81549073ffffffffffffffffffffffffffffffffffffffff02191690556001600360008573ffffffffffffffffffffffffffffffffffffffff1673ffffffffffffffffffffffffffffffffffffffff168152602001908152602001600020600082825403925050819055506001600360008473ffffffffffffffffffffffffffffffffffffffff1673ffffffffffffffffffffffffffffffffffffffff16815260200190815260200160002060008282540192505081905550816002600083815260200190815260200160002060006101000a81548173ffffffffffffffffffffffffffffffffffffffff021916908373ffffffffffffffffffffffffffffffffffffffff160217905550808273ffffffffffffffffffffffffffffffffffffffff168473ffffffffffffffffffffffffffffffffffffffff167fddf252ad1be2c89b69c2b068fc378daa952ba7f163c4a11628f55a4df523b3ef60405160405180910390a4611e7783838360016126f5565b505050565b600081600001549050919050565b60006002600083815260200190815260200160002060009054906101000a900473ffffffffffffffffffffffffffffffffffffffff169050919050565b6001816000016000828254019250508190555050565b600073ffffffffffffffffffffffffffffffffffffffff168273ffffffffffffffffffffffffffffffffffffffff1603611f4c576040517f08c379a0000000000000000000000000000000000000000000000000000000008152600401611f4390613bcc565b60405180910390fd5b611f55816126ae565b15611f95576040517f08c379a0000000000000000000000000000000000000000000000000000000008152600401611f8c90613c38565b60405180910390fd5b611fa36000838360016126ef565b611fac816126ae565b15611fec576040517f08c379a0000000000000000000000000000000000000000000000000000000008152600401611fe390613c38565b60405180910390fd5b6001600360008473ffffffffffffffffffffffffffffffffffffffff1673ffffffffffffffffffffffffffffffffffffffff16815260200190815260200160002060008282540192505081905550816002600083815260200190815260200160002060006101000a81548173ffffffffffffffffffffffffffffffffffffffff021916908373ffffffffffffffffffffffffffffffffffffffff160217905550808273ffffffffffffffffffffffffffffffffffffffff16600073ffffffffffffffffffffffffffffffffffffffff167fddf252ad1be2c89b69c2b068fc378daa952ba7f163c4a11628f55a4df523b3ef60405160405180910390a46120f66000838360016126f5565b5050565b612103826126ae565b612142576040517f08c379a000000000000000000000000000000000000000000000000000000000815260040161213990613cca565b60405180910390fd5b806006600084815260200190815260200160002090816121629190613e96565b507ff8e1a15aba9398e019f0b49df1a4fde98ee17ae345cb5f6b5e2c27f5033e8ce7826040516121929190612dde565b60405180910390a15050565b600081116121e1576040517f08c379a00000000000000000000000000000000000000000000000000000000081526004016121d890613fb4565b60405180910390fd5b6009543414612225576040517f08c379a000000000000000000000000000000000000000000000000000000000815260040161221c90613884565b60405180910390fd5b6040518060a001604052808381526020013373ffffffffffffffffffffffffffffffffffffffff1681526020013073ffffffffffffffffffffffffffffffffffffffff16815260200182815260200160001515815250600b60008481526020019081526020016000206000820151816000015560208201518160010160006101000a81548173ffffffffffffffffffffffffffffffffffffffff021916908373ffffffffffffffffffffffffffffffffffffffff16021790555060408201518160020160006101000a81548173ffffffffffffffffffffffffffffffffffffffff021916908373ffffffffffffffffffffffffffffffffffffffff1602179055506060820151816003015560808201518160040160006101000a81548160ff02191690831515021790555090505061235e333084611b83565b817fdebdb32cb5230ab727c9c361b16fdb2015df225c10e6a3e7f60ecd5dc5be451633308460006040516123959493929190613fd4565b60405180910390a25050565b600081600001549050600081116123ed576040517f08c379a00000000000000000000000000000000000000000000000000000000081526004016123e490614065565b60405180910390fd5b6001810382600001819055505050565b8173ffffffffffffffffffffffffffffffffffffffff168373ffffffffffffffffffffffffffffffffffffffff160361246b576040517f08c379a0000000000000000000000000000000000000000000000000000000008152600401612462906140d1565b60405180910390fd5b80600560008573ffffffffffffffffffffffffffffffffffffffff1673ffffffffffffffffffffffffffffffffffffffff16815260200190815260200160002060008473ffffffffffffffffffffffffffffffffffffffff1673ffffffffffffffffffffffffffffffffffffffff16815260200190815260200160002060006101000a81548160ff0219169083151502179055508173ffffffffffffffffffffffffffffffffffffffff168373ffffffffffffffffffffffffffffffffffffffff167f17307eab39ab6107e8899845ad3d59bd9653f200f220920489ca2b5937696c318360405161255c9190612bd7565b60405180910390a3505050565b612574848484611b83565b612580848484846126fb565b6125bf576040517f08c379a00000000000000000000000000000000000000000000000000000000081526004016125b690614163565b60405180910390fd5b50505050565b606060405180602001604052806000815250905090565b60606125e7826119e2565b60006125f16125c5565b90506000815111612611576040518060200160405280600081525061263c565b8061261b84612882565b60405160200161262c929190613a38565b6040516020818303038152906040525b915050919050565b60007f01ffc9a7000000000000000000000000000000000000000000000000000000007bffffffffffffffffffffffffffffffffffffffffffffffffffffffff1916827bffffffffffffffffffffffffffffffffffffffffffffffffffffffff1916149050919050565b60008073ffffffffffffffffffffffffffffffffffffffff166126d083611e8a565b73ffffffffffffffffffffffffffffffffffffffff1614159050919050565b50505050565b50505050565b600061271c8473ffffffffffffffffffffffffffffffffffffffff16612950565b15612875578373ffffffffffffffffffffffffffffffffffffffff1663150b7a02612745611a2d565b8786866040518563ffffffff1660e01b815260040161276794939291906141d8565b6020604051808303816000875af19250505080156127a357506040513d601f19601f820116820180604052508101906127a09190614239565b60015b612825573d80600081146127d3576040519150601f19603f3d011682016040523d82523d6000602084013e6127d8565b606091505b50600081510361281d576040517f08c379a000000000000000000000000000000000000000000000000000000000815260040161281490614163565b60405180910390fd5b805181602001fd5b63150b7a0260e01b7bffffffffffffffffffffffffffffffffffffffffffffffffffffffff1916817bffffffffffffffffffffffffffffffffffffffffffffffffffffffff19161491505061287a565b600190505b949350505050565b60606000600161289184612973565b01905060008167ffffffffffffffff8111156128b0576128af612ffb565b5b6040519080825280601f01601f1916602001820160405280156128e25781602001600182028036833780820191505090505b509050600082602001820190505b600115612945578080600190039150507f3031323334353637383961626364656600000000000000000000000000000000600a86061a8153600a858161293957612938614266565b5b049450600085036128f0575b819350505050919050565b6000808273ffffffffffffffffffffffffffffffffffffffff163b119050919050565b600080600090507a184f03e93ff9f4daa797ed6e38ed64bf6a1f01000000000000000083106129d1577a184f03e93ff9f4daa797ed6e38ed64bf6a1f01000000000000000083816129c7576129c6614266565b5b0492506040810190505b6d04ee2d6d415b85acef81000000008310612a0e576d04ee2d6d415b85acef81000000008381612a0457612a03614266565b5b0492506020810190505b662386f26fc100008310612a3d57662386f26fc100008381612a3357612a32614266565b5b0492506010810190505b6305f5e1008310612a66576305f5e1008381612a5c57612a5b614266565b5b0492506008810190505b6127108310612a8b576127108381612a8157612a80614266565b5b0492506004810190505b60648310612aae5760648381612aa457612aa3614266565b5b0492506002810190505b600a8310612abd576001810190505b80915050919050565b6040518060a0016040528060008152602001600073ffffffffffffffffffffffffffffffffffffffff168152602001600073ffffffffffffffffffffffffffffffffffffffff168152602001600081526020016000151581525090565b6000604051905090565b600080fd5b600080fd5b60007fffffffff0000000000000000000000000000000000000000000000000000000082169050919050565b612b6c81612b37565b8114612b7757600080fd5b50565b600081359050612b8981612b63565b92915050565b600060208284031215612ba557612ba4612b2d565b5b6000612bb384828501612b7a565b91505092915050565b60008115159050919050565b612bd181612bbc565b82525050565b6000602082019050612bec6000830184612bc8565b92915050565b600081519050919050565b600082825260208201905092915050565b60005b83811015612c2c578082015181840152602081019050612c11565b60008484015250505050565b6000601f19601f8301169050919050565b6000612c5482612bf2565b612c5e8185612bfd565b9350612c6e818560208601612c0e565b612c7781612c38565b840191505092915050565b60006020820190508181036000830152612c9c8184612c49565b905092915050565b6000819050919050565b612cb781612ca4565b8114612cc257600080fd5b50565b600081359050612cd481612cae565b92915050565b600060208284031215612cf057612cef612b2d565b5b6000612cfe84828501612cc5565b91505092915050565b600073ffffffffffffffffffffffffffffffffffffffff82169050919050565b6000612d3282612d07565b9050919050565b612d4281612d27565b82525050565b6000602082019050612d5d6000830184612d39565b92915050565b612d6c81612d27565b8114612d7757600080fd5b50565b600081359050612d8981612d63565b92915050565b60008060408385031215612da657612da5612b2d565b5b6000612db485828601612d7a565b9250506020612dc585828601612cc5565b9150509250929050565b612dd881612ca4565b82525050565b6000602082019050612df36000830184612dcf565b92915050565b600080600060608486031215612e1257612e11612b2d565b5b6000612e2086828701612d7a565b9350506020612e3186828701612d7a565b9250506040612e4286828701612cc5565b9150509250925092565b600081519050919050565b600082825260208201905092915050565b6000819050602082019050919050565b612e8181612ca4565b82525050565b6000612e9282612d07565b9050919050565b612ea281612e87565b82525050565b612eb181612bbc565b82525050565b60a082016000820151612ecd6000850182612e78565b506020820151612ee06020850182612e99565b506040820151612ef36040850182612e99565b506060820151612f066060850182612e78565b506080820151612f196080850182612ea8565b50505050565b6000612f2b8383612eb7565b60a08301905092915050565b6000602082019050919050565b6000612f4f82612e4c565b612f598185612e57565b9350612f6483612e68565b8060005b83811015612f95578151612f7c8882612f1f565b9750612f8783612f37565b925050600181019050612f68565b5085935050505092915050565b60006020820190508181036000830152612fbc8184612f44565b905092915050565b600060208284031215612fda57612fd9612b2d565b5b6000612fe884828501612d7a565b91505092915050565b600080fd5b600080fd5b7f4e487b7100000000000000000000000000000000000000000000000000000000600052604160045260246000fd5b61303382612c38565b810181811067ffffffffffffffff8211171561305257613051612ffb565b5b80604052505050565b6000613065612b23565b9050613071828261302a565b919050565b600067ffffffffffffffff82111561309157613090612ffb565b5b61309a82612c38565b9050602081019050919050565b82818337600083830152505050565b60006130c96130c484613076565b61305b565b9050828152602081018484840111156130e5576130e4612ff6565b5b6130f08482856130a7565b509392505050565b600082601f83011261310d5761310c612ff1565b5b813561311d8482602086016130b6565b91505092915050565b6000806040838503121561313d5761313c612b2d565b5b600083013567ffffffffffffffff81111561315b5761315a612b32565b5b613167858286016130f8565b925050602061317885828601612cc5565b9150509250929050565b6000806040838503121561319957613198612b2d565b5b60006131a785828601612cc5565b92505060206131b885828601612cc5565b9150509250929050565b6131cb81612bbc565b81146131d657600080fd5b50565b6000813590506131e8816131c2565b92915050565b6000806040838503121561320557613204612b2d565b5b600061321385828601612d7a565b9250506020613224858286016131d9565b9150509250929050565b600067ffffffffffffffff82111561324957613248612ffb565b5b61325282612c38565b9050602081019050919050565b600061327261326d8461322e565b61305b565b90508281526020810184848401111561328e5761328d612ff6565b5b6132998482856130a7565b509392505050565b600082601f8301126132b6576132b5612ff1565b5b81356132c684826020860161325f565b91505092915050565b600080600080608085870312156132e9576132e8612b2d565b5b60006132f787828801612d7a565b945050602061330887828801612d7a565b935050604061331987828801612cc5565b925050606085013567ffffffffffffffff81111561333a57613339612b32565b5b613346878288016132a1565b91505092959194509250565b6000806040838503121561336957613368612b2d565b5b600061337785828601612d7a565b925050602061338885828601612d7a565b9150509250929050565b7f4e487b7100000000000000000000000000000000000000000000000000000000600052602260045260246000fd5b600060028204905060018216806133d957607f821691505b6020821081036133ec576133eb613392565b5b50919050565b7f4552433732313a20617070726f76616c20746f2063757272656e74206f776e6560008201527f7200000000000000000000000000000000000000000000000000000000000000602082015250565b600061344e602183612bfd565b9150613459826133f2565b604082019050919050565b6000602082019050818103600083015261347d81613441565b9050919050565b7f4552433732313a20617070726f76652063616c6c6572206973206e6f7420746f60008201527f6b656e206f776e6572206f7220617070726f76656420666f7220616c6c000000602082015250565b60006134e0603d83612bfd565b91506134eb82613484565b604082019050919050565b6000602082019050818103600083015261350f816134d3565b9050919050565b7f4552433732313a2063616c6c6572206973206e6f7420746f6b656e206f776e6560008201527f72206f7220617070726f76656400000000000000000000000000000000000000602082015250565b6000613572602d83612bfd565b915061357d82613516565b604082019050919050565b600060208201905081810360008301526135a181613565565b9050919050565b7f4e487b7100000000000000000000000000000000000000000000000000000000600052601160045260246000fd5b60006135e282612ca4565b91506135ed83612ca4565b9250828201905080821115613605576136046135a8565b5b92915050565b600061361682612ca4565b91507fffffffffffffffffffffffffffffffffffffffffffffffffffffffffffffffff8203613648576136476135a8565b5b600182019050919050565b7f4e487b7100000000000000000000000000000000000000000000000000000000600052603260045260246000fd5b7f4552433732313a20696e76616c696420746f6b656e2049440000000000000000600082015250565b60006136b8601883612bfd565b91506136c382613682565b602082019050919050565b600060208201905081810360008301526136e7816136ab565b9050919050565b7f4552433732313a2061646472657373207a65726f206973206e6f74206120766160008201527f6c6964206f776e65720000000000000000000000000000000000000000000000602082015250565b600061374a602983612bfd565b9150613755826136ee565b604082019050919050565b600060208201905081810360008301526137798161373d565b9050919050565b7f4f6e6c79206974656d206f776e65722063616e20706572666f726d207468697360008201527f206f7065726174696f6e00000000000000000000000000000000000000000000602082015250565b60006137dc602a83612bfd565b91506137e782613780565b604082019050919050565b6000602082019050818103600083015261380b816137cf565b9050919050565b7f5072696365206d75737420626520657175616c20746f206c697374696e67207060008201527f7269636500000000000000000000000000000000000000000000000000000000602082015250565b600061386e602483612bfd565b915061387982613812565b604082019050919050565b6000602082019050818103600083015261389d81613861565b9050919050565b60006138af82612ca4565b91506138ba83612ca4565b92508282039050818111156138d2576138d16135a8565b5b92915050565b7f4f6e6c79206f776e6572206f6620746865206d61726b6574706c61636520636160008201527f6e206368616e676520746865206c697374696e67207072696365000000000000602082015250565b6000613934603a83612bfd565b915061393f826138d8565b604082019050919050565b6000602082019050818103600083015261396381613927565b9050919050565b7f506c65617365207375626d6974207468652061736b696e67207072696365206960008201527f6e206f7264657220746f20636f6d706c65746520746865207075726368617365602082015250565b60006139c6604083612bfd565b91506139d18261396a565b604082019050919050565b600060208201905081810360008301526139f5816139b9565b9050919050565b600081905092915050565b6000613a1282612bf2565b613a1c81856139fc565b9350613a2c818560208601612c0e565b80840191505092915050565b6000613a448285613a07565b9150613a508284613a07565b91508190509392505050565b7f4552433732313a207472616e736665722066726f6d20696e636f72726563742060008201527f6f776e6572000000000000000000000000000000000000000000000000000000602082015250565b6000613ab8602583612bfd565b9150613ac382613a5c565b604082019050919050565b60006020820190508181036000830152613ae781613aab565b9050919050565b7f4552433732313a207472616e7366657220746f20746865207a65726f2061646460008201527f7265737300000000000000000000000000000000000000000000000000000000602082015250565b6000613b4a602483612bfd565b9150613b5582613aee565b604082019050919050565b60006020820190508181036000830152613b7981613b3d565b9050919050565b7f4552433732313a206d696e7420746f20746865207a65726f2061646472657373600082015250565b6000613bb6602083612bfd565b9150613bc182613b80565b602082019050919050565b60006020820190508181036000830152613be581613ba9565b9050919050565b7f4552433732313a20746f6b656e20616c7265616479206d696e74656400000000600082015250565b6000613c22601c83612bfd565b9150613c2d82613bec565b602082019050919050565b60006020820190508181036000830152613c5181613c15565b9050919050565b7f45524337323155524953746f726167653a2055524920736574206f66206e6f6e60008201527f6578697374656e7420746f6b656e000000000000000000000000000000000000602082015250565b6000613cb4602e83612bfd565b9150613cbf82613c58565b604082019050919050565b60006020820190508181036000830152613ce381613ca7565b9050919050565b60008190508160005260206000209050919050565b60006020601f8301049050919050565b600082821b905092915050565b600060088302613d4c7fffffffffffffffffffffffffffffffffffffffffffffffffffffffffffffffff82613d0f565b613d568683613d0f565b95508019841693508086168417925050509392505050565b6000819050919050565b6000613d93613d8e613d8984612ca4565b613d6e565b612ca4565b9050919050565b6000819050919050565b613dad83613d78565b613dc1613db982613d9a565b848454613d1c565b825550505050565b600090565b613dd6613dc9565b613de1818484613da4565b505050565b5b81811015613e0557613dfa600082613dce565b600181019050613de7565b5050565b601f821115613e4a57613e1b81613cea565b613e2484613cff565b81016020851015613e33578190505b613e47613e3f85613cff565b830182613de6565b50505b505050565b600082821c905092915050565b6000613e6d60001984600802613e4f565b1980831691505092915050565b6000613e868383613e5c565b9150826002028217905092915050565b613e9f82612bf2565b67ffffffffffffffff811115613eb857613eb7612ffb565b5b613ec282546133c1565b613ecd828285613e09565b600060209050601f831160018114613f005760008415613eee578287015190505b613ef88582613e7a565b865550613f60565b601f198416613f0e86613cea565b60005b82811015613f3657848901518255600182019150602085019450602081019050613f11565b86831015613f535784890151613f4f601f891682613e5c565b8355505b6001600288020188555050505b505050505050565b7f5072696365206d75737420626520616c206c6573742031000000000000000000600082015250565b6000613f9e601783612bfd565b9150613fa982613f68565b602082019050919050565b60006020820190508181036000830152613fcd81613f91565b9050919050565b6000608082019050613fe96000830187612d39565b613ff66020830186612d39565b6140036040830185612dcf565b6140106060830184612bc8565b95945050505050565b7f436f756e7465723a2064656372656d656e74206f766572666c6f770000000000600082015250565b600061404f601b83612bfd565b915061405a82614019565b602082019050919050565b6000602082019050818103600083015261407e81614042565b9050919050565b7f4552433732313a20617070726f766520746f2063616c6c657200000000000000600082015250565b60006140bb601983612bfd565b91506140c682614085565b602082019050919050565b600060208201905081810360008301526140ea816140ae565b9050919050565b7f4552433732313a207472616e7366657220746f206e6f6e20455243373231526560008201527f63656976657220696d706c656d656e7465720000000000000000000000000000602082015250565b600061414d603283612bfd565b9150614158826140f1565b604082019050919050565b6000602082019050818103600083015261417c81614140565b9050919050565b600081519050919050565b600082825260208201905092915050565b60006141aa82614183565b6141b4818561418e565b93506141c4818560208601612c0e565b6141cd81612c38565b840191505092915050565b60006080820190506141ed6000830187612d39565b6141fa6020830186612d39565b6142076040830185612dcf565b8181036060830152614219818461419f565b905095945050505050565b60008151905061423381612b63565b92915050565b60006020828403121561424f5761424e612b2d565b5b600061425d84828501614224565b91505092915050565b7f4e487b7100000000000000000000000000000000000000000000000000000000600052601260045260246000fdfea2646970667358221220d5c0d795d9302a5e05ce1b99c5386dbde7901879882c4aa4f7d4f35dec8d7e4064736f6c63430008110033",
  "linkReferences": {},
  "deployedLinkReferences": {}
}